:020000040800F2
:10000000503B002019020008BF2E0008E12A00081A
:10001000BD2E000857070008E34F0008000000004D
:10002000000000000000000000000000D7310008C0
:100030000B08000800000000D5310008D931000885
:1000400033020008330200083302000833020008BC
:1000500033020008330200083302000833020008AC
:10006000330200083302000833020008330200089C
:100070003302000833020008C9070008D50700084A
:10008000330200083302000833020008330200087C
:100090006D4F0008330200083302000833020008E5
:1000A000330200083302000833020008330200085C
:1000B000330200083302000833020008330200084C
:1000C000330200083302000833020008330200083C
:1000D0003302000819380008330200083302000810
:1000E000330200083302000833020008330200081C
:1000F000330200083302000833020008330200080C
:1001000033020008330200083302000833020008FB
:1001100033020008330200083302000833020008EB
:1001200033020008330200083302000833020008DB
:1001300000F002F800F060F80AA090E8000C824499
:100140008344AAF10107DA4501D100F055F8AFF276
:10015000090EBAE80F0013F0010F18BFFB1A43F0A5
:1001600001031847B86C0000D86C00000A444FF037
:10017000000C10F8013B13F0070408BF10F8014B06
:100180001D1108BF10F8015B641E05D010F8016B4B
:10019000641E01F8016BF9D113F0080F1EBF10F8AF
:1001A000014BAD1C0C1B09D16D1E58BF01F801CBD2
:1001B000FAD505E014F8016B01F8016B6D1EF9D555
:1001C0009142D6D37047000000230024002500266A
:1001D000103A28BF78C1FBD8520728BF30C148BFAA
:1001E0000B6070471FB59DE8030000F07FF900F039
:1001F0004FF91FBD10B510BD00F02AFA1146FFF7E8
:10020000F1FF05F0C3FB00F048FA03B4FFF7F2FF7B
:1002100003BC00F079FA000009488047094800470C
:10022000FEE7FEE7FEE7FEE7FEE7FEE7FEE7FEE7A6
:10023000FEE7FEE704480549054A064B7047000003
:100240005B3200083101000850230020503B0020A1
:10025000503300205033002070B50D460646041F71
:1002600000F028F9D0F800C0C5B1E6B105F10B00E7
:1002700020F00703AB423CBF002070BD20689842CD
:1002800038BFDCF8042013D3C11A08292FD3E01893
:1002900040F8041B236000F087F928E0304600F0A6
:1002A00083F9002070BD2846BDE8704000F04DB9CC
:1002B000002A18BFA2423CBF94465268F8D30119E5
:1002C000914216D111680844984212D3C11A0829E4
:1002D0003CBF2060506808D35168E0184160216835
:1002E00012681144C91A01602360CCF80400201D73
:1002F00070BD181F00F029F9050007D021680A1FFA
:10030000211D00F069F8201D00F04EF9284670BD4F
:1003100010B5431C02E010F8011B71B18107FAD13E
:100320004FF0013202C88C1A8C4314EAC211F9D082
:10033000C01A0A0603D0C01E10BDC01A10BD0A04A0
:1003400001D0801E10BD0902FCD0401E10BD032A42
:1003500040F2308010F0030C00F0158011F8013BE2
:10036000BCF1020F624498BF11F801CB00F8013BC9
:1003700038BF11F8013BA2F1040298BF00F801CB8D
:1003800038BF00F8013B11F0030300F02580083A64
:10039000C0F0088051F8043B083A51F804CBA0E8BB
:1003A0000810F5E7121D5CBF51F8043B40F8043B10
:1003B000AFF30080D20724BF11F8013B11F801CB45
:1003C00048BF11F8012B24BF00F8013B00F801CB16
:1003D00048BF00F8012B704710B5203AC0F00B80E1
:1003E000B1E81850203AA0E81850B1E81850A0E839
:1003F0001850BFF4F5AF5FEA027C24BFB1E8185093
:10040000A0E8185044BF18C918C0BDE810405FEA02
:10041000827C24BF51F8043B40F8043B08BF70477E
:10042000D20728BF31F8023B48BF11F8012B28BF83
:1004300020F8023B48BF00F8012B70474FF0000244
:1004400000B5134694469646203922BFA0E80C50CA
:10045000A0E80C50B1F12001BFF4F7AF090728BFA5
:10046000A0E80C5048BF0CC05DF804EB890028BF21
:1004700040F8042B08BF704748BF20F8022B11F04A
:10048000804F18BF00F8012B7047704770477047C6
:1004900070B5064C7C44064D7D4403E02068204442
:1004A0008047241DAC42F9D170BD0000A469000052
:1004B000A469000000487047F82200207047704788
:1004C0007047704738B504460A4600206946AFF3C6
:1004D0000080002808BF38BD02460099204600F081
:1004E00096F8012038BD012000F0ABB8F8B5AFF3A5
:1004F0000080054600200C46102000BF0646A819C3
:10050000A0420DD9324669460020AFF300800700B3
:1005100008BF00F096F80098A04218BF0546C4191D
:10052000FFF7C8FF05600746F01D20F007004619D9
:10053000284600F065F8B44208BFF8BDA21B31465A
:100540003868BDE8F84000F062B870B50646FFF7BD
:10055000B1FF056806F10B0020F00704B4429CBF10
:10056000002070BD2B466A68BAB11068A04210D353
:1005700004F1080188423CBF5068586007D35168B5
:10058000101941601168091B016058601460101D4A
:1005900070BD13465268002AE7D121462846FFF76E
:1005A00091FF0028DED170BD70B50446051FFFF72E
:1005B00081FF0068002C14BF446870BD002C18BF78
:1005C000AC423CBF20466468F8D301680A18AA42CE
:1005D00018BF456003D12A680546114401602868A8
:1005E0004119A1421CBF6C6070BD616869602168DF
:1005F0000844286070BD000000487047F0220020C9
:1006000000210160C0E901107047102070470346C7
:1006100040688C46002818BF88423CBF03464068AB
:10062000F8D318681844884207D00CF1030020F072
:100630000700001D411A521A0146081D0A60FFF703
:10064000B3BF10B500F038F8BDE8104000F02EB888
:100650007546FFF7D1FFAE4605006946534620F0C8
:100660000700854618B020B5FFF7E4FDBDE820403F
:100670004FF000064FF000074FF000084FF0000B5E
:1006800021F00701AC46ACE8C009ACE8C009ACE811
:10069000C009ACE8C0098D46704710B50446AFF3F9
:1006A00000802046BDE81040FFF7AFBD002801D014
:1006B00000F02AB87047000010B5012805D00021CD
:1006C00003A000F028F8012010BD09A1F8E7000000
:1006D00053494752544D454D3A204F7574206F662B
:1006E0002068656170206D656D6F72790000000093
:1006F0003A2048656170206D656D6F727920636F77
:10070000727275707465640001491820ABBEFEE713
:1007100026000200704770B505460C460A2000E02E
:100720006D1C00F011F835B128780028F8D102E0EE
:10073000641C00F009F814B120780028F8D1BDE855
:1007400070400A20AFF3008008B569468DF80000BC
:100750000320ABBE08BDFEE70020704700207047B5
:1007600010B500220449054803F04EF90449034836
:1007700003F044F9002010BDFC19002050110020A6
:100780001416002010B50146034803F037F902485B
:1007900003F018F9002010BD50110020094A10B5CF
:1007A000D2F8B822D2F814220AB1012010BD0A46AC
:1007B0000146044803F028F9BDE81040014803F061
:1007C00081B9000050110020014800F0DDB80000A0
:1007D00064030020014800F0D7B800002003002087
:1007E00030B590F840500124AC40C56B6C60046893
:1007F00063604368102B036803D099600068C2608F
:1008000030BD9A600068C16030BD704772B6FEE7C7
:1008100010B590F821100022022905D0042181632F
:1008200080F82020012010BD01680B6823F00E0322
:100830000B6001680B6823F001030B6090F84030F7
:10084000C46B012101FA03F3636080F8211080F882
:100850002020104610BD00002DE9F05F90F8211017
:100860000024022903D004218163012485E001686A
:100870000A6822F00E020A6001680A6822F001028A
:100880000A603F4E3E4FB215DFF8F4C0DFF8F0903B
:10089000DFF8ECA0DFF8E8B0DFF8E4E00168783FCB
:1008A00013011502ACF1640CA9F15009AAF13C0A3C
:1008B000ABF1280BAEF1140E4FF48018B14227D9DA
:1008C000B9420ED0614512D049451DD0514518D0CE
:1008D000594518D0714501D1424615E0294EB14223
:1008E00001D1012210E0274E1436B14201D110226D
:1008F0000AE0244E2836B14206D0224A3C329142C8
:1009000001D11A4600E02A461E49091F0A602BE061
:10091000B94213D0614517D0494522D051451DD069
:1009200059451DD0714501D142461AE0B14202D16C
:100930004FF0807215E0134EB14201D1012210E058
:10094000104E1436B14201D110220AE00D4E283665
:10095000B14206D00B4A3C32914201D11A4600E026
:100960002A46074980394A60012180F82110002178
:1009700080F82010416B01B188472046BDE8F09F08
:1009800080000240080402402DE9F05FC16B0A6854
:1009900001680B68046C4FF0040808FA04F8844DF1
:1009A000844E854FDFF814C2DFF81492DFF814A2EA
:1009B000DFF814B2DFF814E218EA020F65D05FEA3C
:1009C000437862D50A68920603D40A6822F00402CA
:1009D0000A60DFF8F0814FF48062016808F11408C2
:1009E00013011402414524D9A9420DD0B1420FD0C0
:1009F000B9421AD0614515D0494515D0514501D1AC
:100A0000120312E0594501D104220EE0714501D1D3
:100A100040220AE06D4D1435A94206D06B4A2832B7
:100A2000914201D11A4600E022466749091F0A6037
:100A300029E0A94213D0B14215D0B94220D0614576
:100A40001BD049451BD0514502D14FF4800217E01D
:100A5000414502D14FF0806212E0594501D1042294
:100A60000EE0714501D140220AE0584D1435A942EB
:100A700006D0564A2832914201D11A4600E0224659
:100A80004B4908394A60C16A71E04FF0020808FA20
:100A900004F818EA020F70D05FEA83786DD50A680F
:100AA000920606D40A6822F00A020A60012180F840
:100AB0002110DFF810814FF40072016808F114086A
:100AC00013011402414524D9A9420DD0B1420FD0DF
:100AD000B9421AD0614515D0494515D0514501D1CB
:100AE000120312E0594501D102220EE0714501D1F5
:100AF00020220AE0354D1435A94206D0334A283267
:100B0000914201D11A4600E022462F49091F0A608E
:100B100029E0A94213D0B14215D0B94220D0614595
:100B20001BD049451BD0514502D14FF4001217E0AC
:100B3000414502D14FF0007212E0594501D1022225
:100B40000EE0714501D120220AE0204D1435A94262
:100B500006D01E4A2832914201D11A4600E02246B0
:100B6000134908394A60002180F82010816A002961
:100B70001CD0BDE8F05F0847FFE70825A5401542F7
:100B800014D01A0712D50A6822F00E020A6090F8F3
:100B90004020C36B012101FA02F25A60816380F8A0
:100BA0002110002180F82010016BE0E7BDE8F09FE4
:100BB000080002401C000240300002404400024095
:100BC000580002406C000240080402401C0402402D
:100BD00030B560B11A4B026814219A4209D2194B00
:100BE0001344B3FBF1F18900016417490AE00120C5
:100BF00030BD134B5B421344B3FBF1F18900016438
:100C00000F490839C163022180F82110136843F6A7
:100C1000F0718B43F0E901142143D0E902452C43E4
:100C200021430469214344692143846921431943D1
:100C3000116000214163012242770177084630BDEF
:100C400008040240F8FFFDBF0000024070B50446F2
:100C500090F82000002501280CD0012084F8200005
:100C600094F821600020012E06D084F8200002258F
:100C7000284670BD022070BD022684F82160A06362
:100C80002068066826F0010606602046FFF7A8FDEA
:100C9000E06A00282068016802D041F00E0106E0F9
:100CA00021F0040101602068016841F00A0101603F
:100CB0002068016841F001010160D9E770B5044680
:100CC00000F018F90546601C02D00448007804447E
:100CD00000F010F9401BA042FAD370BD00000020C4
:100CE0002DE9F84FDFF8C891002409F1040A0AF150
:100CF000040B23460F270BF1040ED1E00125A5407C
:100D000006EA0502AA4276D1DFF8A8C14E68A6EB32
:100D10000C0866452BD00DDC032E34D005DC36B331
:100D2000012E19D0022E2FD11BE0112E16D0122E1B
:100D30002AD119E0B8F5881F19D006DCB8F5803F34
:100D400015D0B8F5801F1FD111E0B8F5001F0ED0E7
:100D5000B8F5041F18D10AE0CB6815E0CB681B1D5D
:100D600012E0CB6808330FE0CB680C330CE08B68E3
:100D70002BB1012B4FF0080303D0456104E004239D
:100D800002E0056100E00023FF2A01D8064601E0E9
:100D900000F104064FEA840501D9A5F12005D6F833
:100DA000008007FA05FC28EA0C0803FA05F548EA72
:100DB0000508C6F800804D68ED0070D53E4DAE695F
:100DC00046F00106AE61AD6924F0030605F00105A9
:100DD00000953A4D06EB050CDCF80850A607360FD7
:100DE00007FA06F825EA0805DFF8D480404503D164
:100DF0004FF0000825E052E0DFF8C880404502D1FE
:100E00004FF001081DE0DFF8C080404502D14FF0EF
:100E1000020816E0DFF8B480404502D14FF0030825
:100E20000FE0DFF8AC80404502D14FF0040808E045
:100E3000DFF8A080404502D14FF0050801E04FF0F7
:100E4000060808FA06F848EA0508CCF808804D6854
:100E5000D9F80060ED034D4601D5164300E09643F6
:100E60002E604D68DAF80060AD03554601D5164393
:100E700000E096432E604D68DBF80060ED025D46B1
:100E800001D5164300E096432E604D68DEF8006001
:100E9000AD02754601D5164300E096432E60641CF2
:100EA0000A681646E2407FF429AFBDE8F88F0000DB
:100EB0000004014000001110001002400000014039
:100EC00000080140000C01400010014000140140E6
:100ED00000180140001C0140C26821EA02030A40D8
:100EE00043EA0241016170470AB101617047090498
:100EF000FBE7000001488068704700000000002008
:100F000070B5040011D021684CF6CC40086021680F
:100F100045F255500860D4E9000141602168A0689D
:100F20008860FFF7E7FF05460DE0012070BD00BFB8
:100F3000FFF7E0FF401B272805D92068C06880071D
:100F400001D0032070BD2068C0688007F0D12168FF
:100F50004AF6AA200860002070BD00684AF6AA215F
:100F60000160002070470000024881680278114447
:100F70008160704700000020074810B5016841F00B
:100F800010010160032000F073F80F2000F006F854
:100F900000F024F8002010BD0020024070B50D4D77
:100FA00004464FF47A712878B1FBF0F00A490968D9
:100FB000B1FBF0F001F02EF848B9102C07D2002256
:100FC0002146501E00F034F800206C6070BD0120F6
:100FD00070BD0000000000200C0000200B4808B588
:100FE000816941F001018161816901F00101009194
:100FF000C16941F08051C161C06900F0805000902A
:101000000348416821F0E061416008BD00100240E2
:1010100000000140002809DB00F01F02012191407F
:101020004009800000F1E020C0F800117047000086
:10103000F0B40E4B1B680C46C3F30223C3F1070543
:10104000042D00D90425191D072901D2002300E031
:10105000DB1E012606FA05F1491E214099409E40FB
:10106000761E16403143F0BC04F0D4BB0CED00E01A
:10107000064900F0070208684FF6FF03184040EAEF
:101080000220034A10430860704700000CED00E0A6
:101090000000FA0510B50C0607D501F0070101EBB9
:1010A000810100EBC100283005E001EB810100EB7C
:1010B000C10000F5B47099B232B10122027301810E
:1010C000190C4181002010BD00220273C180F9E794
:1010D000704701EB810200EBC202D0F8E802D26B4C
:1010E00002F09FBE01EB810200EBC202D0F8E802E1
:1010F000D2F87C2102F0F8BE70B504460B0601F070
:10110000070000EB800104EBC1014FF001024FF03A
:10111000000503D581F82920283103E081F86951C1
:1011200001F5B471087094F8A802012808D084F879
:10113000A822206803F018FB84F8A852002070BD94
:10114000022070BD70B5044601F00F006268904245
:1011500001D9012070BD0B0601F0070000EB8001F2
:1011600004EBC1014FF001024FF0000503D581F8F7
:101170002920283103E081F8695101F5B4718D709F
:10118000087094F8A802012808D084F8A8222068E2
:1011900003F087FB84F8A852002070BD022070BDC8
:1011A0002DE9F05F04685FEA424C0B788D69B4F872
:1011B00050C04FF000064BF68F7948F2800A48F68F
:1011C0008F7B48F2C00E4FF480672AD54FF002089B
:1011D00008EBC308C44407EB4C07E45BC4F3090401
:1011E000A54203D32D1B8D6101D00BE08E610668F3
:1011F00036F8235005EA090585F4005545EA0A0545
:1012000026F82350520609D50D78036833F82520B7
:1012100002EA0B0242EA0E0223F8252084B30A896F
:1012200029E04FF0060808EBC308C44407EB4C075D
:10123000E45BC4F30904A54203D32D1B8D6101D0E7
:101240000BE08E61066836F8235005EA090585F43F
:10125000005545EA0A0526F82350520609D40B78B2
:10126000056835F8232002EA0B0242EA0E0225F84F
:1012700023202CB14A8949690068234603F080FE87
:101280002046BDE8F09F2DE9F05F054600680C465A
:101290005FEA426C16468B692278B0F850C048F677
:1012A0008F774CF280094FF6FF7B4FF4004E4FF4DE
:1012B000806A4FF000017BD54FF0020808EBC208AE
:1012C000E0440AEB480C30F80C00C0F309008342FC
:1012D00011D91B1AA3610FD0730407D52E6836F8F5
:1012E00022303B4043EA090326F8223094F82420B8
:1012F000012A50D04EE1A161607810B1012813D0CD
:101300001AE02868B0F85030184400EB0210B0F82A
:10131000042422F4F842A0F80424B0F8042442F48F
:101320000042A0F8042407E02868B0F850301844C0
:1013300000EB0210A0F804146278286812B1012AA8
:1013400011D018E0B0F850100844217800EB0110DB
:10135000B0F80C1421F4F841A0F80C14B0F80C14F7
:1013600041F4004105E0B0F850201044227800EB31
:101370000210A0F80C1421782846FFF7AAFE70048A
:10138000B8D521782A6832F82100384040EA0900AF
:1013900022F82100FEE0626902446261E2690244CF
:1013A000E2612369226A9A4203D31846111A04E0C3
:1013B00038E084F824100AB110462162617811B136
:1013C000012923D02BE02968B1F85020114422785C
:1013D00001EB021101F2044148B13E280FD8420846
:1013E000C30700D0521C0BEA82220A8017E00A8849
:1013F00022F4F8420A800A8842F40042F5E74209E2
:10140000C30600D1521E4EEA8222EEE72968B1F8E7
:1014100050201144227801EB0211A1F8040483B298
:101420002289B3E04FF0060808EBC208E0440AEB5B
:10143000480C30F80C00C0F30900834211D31B1A8A
:10144000A3610FD0730407D42E6836F822303B40D6
:1014500043EA090326F8223094F82420012A50D0C8
:1014600098E0A161607810B1012813D01AE02868D3
:10147000B0F85030184400EB0210B0F8042422F405
:10148000F842A0F80424B0F8042442F40042A0F882
:10149000042407E02868B0F85030184400EB02102C
:1014A000A0F804146278286812B1012A11D018E05B
:1014B000B0F850100844217800EB0110B0F80C147B
:1014C00021F4F841A0F80C14B0F80C1441F40041D8
:1014D00005E0B0F850201044227800EB0210A0F88C
:1014E0000C1421782846FFF7F4FD700452D42278BA
:1014F000296831F82200384040EA090021F822002A
:1015000048E0626902446261E2690244E26123697F
:10151000226A9A4203D31846111A216204E00AB1E2
:101520001046216284F824106278296812B1012AD9
:1015300022D029E0B1F850201144227801EB0211A9
:1015400001F20C4148B13E280FD84208C30700D031
:10155000521C0BEA82220A8016E00A8822F4F84222
:101560000A800A8842F40042F5E74209C30600D126
:10157000521E4EEA8222EEE7B1F850201144227842
:1015800001EB0211A1F80C04628983B26169286839
:1015900003F014FD21782A6832F8210048F6BF7361
:1015A000184080F0300048F28003184322F82100F0
:1015B0000020BDE8F09F01F0070101EB810100EB85
:1015C000C100D0F8840170472DE9F04104460F06B0
:1015D00001F0070000EB800104EBC1014FF00106B0
:1015E0004FF0000503D581F82960283103E081F828
:1015F000695101F5B47108700A61CB704A7802B183
:10160000C881022B00D10D7194F8A802012809D0DD
:1016100084F8A862206802F079FF284684F8A8526E
:10162000BDE8F0810220FBE770B50C4601F007052C
:1016300005EB850100EBC101C1E95F230022C1F880
:10164000842181F8692181F8685101F5B47162073C
:10165000006803F07BF9002070BD70B504460D46AC
:1016600001F007006168884201D9012070BD290698
:101670004FF000064FF0010207D500EB800104EBAC
:10168000C10181F82920283107E005EB850104EB31
:10169000C10181F8696101F5B4718A70087094F82C
:1016A000A802012807D084F8A822206803F035F9A1
:1016B000680702D006E0022070BD04F52C71206896
:1016C00003F0EDF884F8A862002070BD70B50C46F8
:1016D00001F0070505EB850100EBC101C1E90F230E
:1016E000012281F84C208B6400234B6481F829206F
:1016F00001F8285F6207006803F028F9002070BD38
:101700001FB50446006803F037FC000402D52046EC
:1017100001F0D6FB206803F02FFC40050CD52068B3
:1017200030F8441F21F480610180204600F01EF94A
:101730000021204600F035F9206803F01DFC40042C
:1017400005D5206830F8441F21F4804101802068CD
:1017500003F012FC800405D5206830F8441F21F402
:1017600000510180206803F007FCC00414D52068F4
:1017700030F8401F21F004010180206830F8401F3C
:1017800021F008010180204600F003F9206830F8BC
:10179000441F21F480510180206803F0EDFB000517
:1017A0003ED522680020694632F8203021F81030FA
:1017B000401CC0B20828F7D332F8400F40F00100B7
:1017C0001080206830F8402F22F00102028020684B
:1017D000B0F844205205FBD530F8442F22F4806243
:1017E00002800020236831F8102023F82020401CBC
:1017F000C0B20828F6D3206830F8401F41F0080135
:101800000180206830F8441F21F4006101802068C5
:1018100030F8401F41F004010180204600F0F6F846
:10182000206803F0A9FB800508D5206830F8441F24
:1018300021F400710180204600F0AFF8206803F029
:101840009BFBC00505D5206830F8441F21F480714A
:1018500001801FBD2DE9F04186B0040004D094F84A
:10186000A902002520B108E0012006B0BDE8F08102
:1018700084F8A852204600F05BF8032084F8A902FF
:10188000206803F005F804F1100114228846684628
:10189000FEF7A2FD94E80F0002F064FF0226D0BB21
:1018A0000021206803F082FB002001270FE000BF29
:1018B00000EB800104EBC10181F8297001F8280FC9
:1018C000C881CD700D614D61401CC0B28D616168F1
:1018D0008142EDD8002011E000EB800104EBC10152
:1018E00081F8695181F8680181F86B51C1F878512C
:1018F000C1F87C51401CC0B2C1F88051616881427E
:10190000EAD8142241466846FEF766FD94E80F00C7
:1019100002F0B5FF10B184F8A962A5E784F824505D
:1019200084F8A972206802F0A8FF00209DE700005B
:1019300008B500680B49884212D10B48C16941F4CF
:101940000001C161C069002200F40000009011464E
:101950001420FFF76DFBBDE808401420FFF75ABBC9
:1019600008BD0000005C00400010024070B5044655
:1019700080680125022801D0FEF748FF2946D4F8E7
:10198000E80202F09AFBD4F8E802BDE8704002F0E9
:1019900056BBD0F8E80202F07ABBD0F8E80202F0B9
:1019A00080BB10B5044690F8A80201280BD0012096
:1019B00084F8A80284F82410206803F0F9FA0020C3
:1019C00084F8A80210BD022010BDD0F8E82200F56E
:1019D0002C71104602F07DBB10B5044690F8A802A9
:1019E000012810D0012084F8A802206803F0B4FA7E
:1019F00001212046FFF76CFB206802F03CFF00202D
:101A000084F8A80210BD022010BD000010B50446E5
:101A1000D0F8E80202F09CFBA069002804D003483B
:101A2000016841F00601016010BD000010ED00E00A
:101A30002DE9F84305460078354CC00754D0E069DD
:101A40000026C00008D4E06940F08050E061E06901
:101A5000012600F0805000902E480168C90512D47C
:101A60000168804641F480710160FFF743FA074640
:101A700005E000BFFFF73EFAC01B642823D8D8F862
:101A80000000C005F6D5206A10F4407021D0A98866
:101A900001F4407181421CD0206A1F49012220F4C8
:101AA00040700A6000220A602062C00711D0FFF770
:101AB00021FA074641F2883808E000BFFFF71AFA1A
:101AC000C11B414502D90320BDE8F883206A800785
:101AD000F4D5206A696820F44070084320621EB182
:101AE000E06920F08050E0612878800705D56068C3
:101AF000A96820F44040084360602878C00605D5F6
:101B00006068696920F48000084360600020DBE7BA
:101B10000010024000700040400442422DE9F047AE
:101B20000F46050061D0434E306800F00700B84210
:101B300009D2306820F0070038433060306800F088
:101B40000700B84251D128683B4C810712D54007A5
:101B500003D5606840F4E06060602878000703D532
:101B6000606840F4605060606068A96820F0F00030
:101B7000084360602878C00728D06868012810D022
:101B80002168022810D0890700292EDA616821F027
:101B9000030101436160FFF7ADF9804641F28839E6
:101BA0000DE021688903EFE78901EDE7FFF7A2F96E
:101BB000A0EB0801494502D90320BDE8F087606821
:101BC000696800F00C00B0EB810FEFD1306800F0D5
:101BD0000700B8420BD9306820F007003843306066
:101BE000306800F00700B84201D00120E5E728780E
:101BF000400705D56068E96820F4E060084360604C
:101C00002878000706D56068296920F4605040EA0A
:101C1000C100606000F038F86168084AC1F3031140
:101C2000515CC8400649086006480068FFF7B6F9ED
:101C30000020C2E700200240001002407C6B000838
:101C40000C00002004000020044805490068496891
:101C5000044AC1F30221515CC84070470C000020C7
:101C6000001002408C6B0008044805490068496870
:101C7000044AC1F3C221515CC84070470C000020E7
:101C8000001002408C6B000812A185B00FC98DE8CE
:101C90000F0014A0144A006804905168134801F022
:101CA0000C03042B10D0082B0ED1C1F38343C903BE
:101CB0001DF803000AD5516804AAC1F34041515CE4
:101CC0000A4A5043B0FBF1F005B070470849484359
:101CD000FAE7000002030405060708090A0B0C0DC9
:101CE0000E0F1010010200000010024000127A00D6
:101CF00000093D002DE9F84F040070D02078C04D58
:101D0000C00749D06868C0F38100012807D068681F
:101D1000C0F38100022809D16868C00306D528688D
:101D2000800339D560680028E7D035E06068B0F5F9
:101D3000803F0BD010B1B0F5A02F11D0286820F44F
:101D400080302860286820F4802002E0286840F471
:101D500080302860606890B1FFF7CCF806460AE052
:101D6000286840F480202860F0E700BFFFF7C2F841
:101D7000801B642873D828688003F7D50CE0FFF730
:101D8000B9F8064605E000BFFFF7B4F8801B6428E9
:101D9000F0D828688003F7D420789A4E80074FF057
:101DA00001094FF0000839D5686810F00C0F07D012
:101DB0006868C0F38100022809D16868C00306D4AE
:101DC0002868800714D52069012808D110E020690F
:101DD000B0B1C6F80090FFF78DF8074605E00AE1BC
:101DE000FFF788F8C01B0228C4D828688007F7D5F9
:101DF0002868616920F0F80040EAC10028600DE021
:101E0000C6F80080FFF776F8074604E0FFF772F89F
:101E1000C01B022823D828688007F7D42078000741
:101E20002CD57948A169D9B1C0F80090FFF762F8C4
:101E3000074604E0FFF75EF8C01B02280FD8686A67
:101E40008007F7D571484FF4FA510068B0FBF1F004
:101E5000009000BF0098411E0091FAD20EE080E091
:101E6000C0F80080FFF746F8074604E0FFF742F8A5
:101E7000C01B022875D8686A8007F7D4207840070D
:101E800060D5E8690027C00008D4E86940F08050B8
:101E9000E861E869012700F0805000905C48016823
:101EA000C90513D40168834641F480710160FFF7CE
:101EB00021F8824606E000BFFFF71CF8A0EB0A00FD
:101EC00064284ED8DBF80000C005F5D5E06801288D
:101ED0000AD008B1052813D0286A20F00100286232
:101EE000286A20F0040002E0286A40F0010028621D
:101EF000E06841F2883B98B1FEF7FCFF82460BE0B8
:101F0000286A40F004002862EEE700BFFEF7F2FF07
:101F1000A0EB0A0159455AD8286A8007F6D50CE08B
:101F2000FEF7E8FF824605E0FEF7E4FFA0EB0A01BA
:101F300059454CD8286A8007F6D41FB1E86920F0CB
:101F40008050E861E06988B36968C1F381010229C2
:101F500044D00228C6F8608004D0FEF7CBFF0446C8
:101F600038E034E0FEF7C6FF074604E0FEF7C2FFA4
:101F7000C01B02282BD828688001F7D4206AB0F54E
:101F8000803F05D16868A16820F40030084368608C
:101F9000D4E908010843696821F4741108436860B2
:101FA000C6F86090FEF7A6FF044606E025E000BFF5
:101FB000FEF7A0FF001B022809D828688001F7D58A
:101FC0001BE000BFFEF796FF001B022802D903208A
:101FD000BDE8F88F28688001F4D40EE00128F7D01E
:101FE0006868226A00F48031914204D1616A00F489
:101FF0007010884201D00120EAE70020E8E70000E5
:102000000010024000004242800442420C000020C6
:102010000070004010B5401EB0F1807F01D3012058
:1020200010BD4FF0E02460610F21601703F0F2FB58
:102030000020A06107202061002010BD10B590F89D
:102040003C20012A22D0012280F83C20CA688C68FA
:1020500022F4407222434C6822F4806222430C68CE
:1020600022F4006222430C6922F4805222434C691C
:1020700022F400522243C969002322F480420A4319
:1020800001684A6480F83C30002010BD022010BD79
:1020900070B590F83C20012A2CD0012480F83C40F7
:1020A000022280F83D2003685A689D6822F070067D
:1020B0000A6832435A60104B02689A420ED00F4BA6
:1020C0009A420BD0B2F1804F08D00D4B9A4205D006
:1020D0000C4B9A4202D00C4B9A4204D1496825F02D
:1020E00080031943916080F83D40002180F83C1046
:1020F000084670BD022070BD002C01400034014034
:102100000004004000080040000C004010B504002E
:1021100003D094F83D0010B107E0012010BD00206D
:1021200084F83C00204600F01FF8022084F83D00AF
:10213000211D206801F092F8012084F8460084F8FF
:102140003E0084F83F0084F8400084F8410084F8A1
:10215000420084F8430084F8440084F8450084F881
:102160003D00002010BD000008B50C4A01680C4875
:10217000914207D1816941F400618161806900F475
:10218000006009E0074A914207D1C16941F00201AC
:10219000C161C06900F00200009008BD002C014040
:1021A000001002400004004070B5044690F83C0066
:1021B000012817D0012584F83C50022084F83D0006
:1021C0002068826822F0770222F47F4282600868E9
:1021D000502830D00DDC20284DD005DC98B31028D5
:1021E0003BD148E0022070BD302844D0402834D193
:1021F00039E0602828D0702806D0B0F5805F2CD058
:10220000B0F5005F29D10AE0CB68D1E9012120684F
:1022100001F077F82068816841F0770109E0CB6828
:10222000D1E90121206801F06CF82068816841F44F
:102230008041816011E0CA684968206801F036F980
:102240005021206807E016E0CA684968206801F05C
:102250003EF96021206801F05EF884F83D500020CE
:1022600084F83C0070BDCA684968206801F01EF916
:1022700040212068EFE7226801461046EBE72DE990
:10228000F0410D46040003D094F83D0018B108E079
:102290000120BDE8F081002084F83C00204600F0D9
:1022A00041F8022084F83D002068816844F207026A
:1022B00091438160211D206800F0D0FF2268906862
:1022C0009169166A2B68AF69034340F2033081437A
:1022D00041EA0721A868EF6908434FF6FC418843AB
:1022E000E96840EA0720014328692F6A000140EAB3
:1022F0000730084369686D6926F0220646EA05152D
:10230000294393602268906154F8460B01620120D2
:1023100004F81F09E0752076E0762077A07500208C
:10232000B7E7000000B585B000210091019102914E
:1023300003911F4A01681F4891421FD1C16941F0B2
:102340000401C161C16901F004010491816941F096
:10235000200181618069694600F0200004904FF4FB
:10236000405000901448FEF7BBFC1448416841F00F
:10237000E06141F48051416005B000BD104A9142D6
:10238000FAD1C16941F00801C161C16901F00801D8
:102390000491816941F0040181618069694600F01E
:1023A00004000490032000900648FEF799FCE3E740
:1023B00000080040001002400014014000000140ED
:1023C000000C00400008014070B590F83E600446E3
:1023D00090F83F5090F8423090F84320022021B10D
:1023E00004290ED0012E1BD114E0012E18D1012B8F
:1023F00016D184F83E0084F84200012200212068B2
:1024000020E0012D0CD1012A0AD184F83F0084F884
:10241000430014E0012D03D1012B01D1012A01D089
:10242000012070BD84F83E0084F83F0084F842002B
:1024300084F8430001220021206800F055FF0122AA
:102440000421206800F050FF2068016841F001017C
:102450000160002070BD000010B586B00021009121
:102460000191029103911E4B02681E4802211E4CED
:102470009A4217D1826942F04002826180690391D9
:1024800000F0400004900803CDE9000169461748B8
:10249000FEF726FC606820F0C00040F0E06040F0ED
:1024A000C00019E0124B9A4217D1826942F0100223
:1024B00082618069039100F0100004909815CDE9C5
:1024C000000169460B48FEF70BFC606820F4406091
:1024D00040F0E06040F44060606006B010BD000075
:1024E000002C014000100240000001400018014093
:1024F000000400400010014070B5044690F83C0014
:102500000D4601280AD0012084F83C0042B1042A7B
:1025100018D0082A2AD00C2A4DD139E0022070BDEB
:10252000206800F001FF2068816941F008018161A5
:102530002068816921F004018161206881692A692C
:10254000114311E0206800F01FFF2068816941F409
:10255000006181612068816921F480618161206866
:1025600081692A6941EA0221816124E0206800F042
:1025700041FF2068C16941F00801C1612068C1695B
:1025800021F00401C1612068C1692A69114311E089
:10259000206800F063FF2068C16941F40061C161F7
:1025A0002068C16921F48061C1612068C1692A691C
:1025B00041EA0221C161002084F83C0070BD10B5E1
:1025C000040003D094F83D0010B107E0012010BDD5
:1025D000002084F83C00204600F01EF8022084F819
:1025E0003D00211D206800F039FE012084F84600DE
:1025F00084F83E0084F83F0084F8400084F84100ED
:1026000084F8420084F8430084F8440084F84500CC
:1026100084F83D00002010BD7047000010B504464E
:10262000022249B104290ED0082913D094F84100A0
:10263000012816D0012010BD94F83E000128F9D1E0
:1026400084F83E200FE094F83F000128F2D184F88E
:102650003F2008E094F840000128EBD184F84020A6
:1026600001E084F841200122206800F03DFE13497A
:102670002068134A884201D0904203D1436C43F44E
:1026800000434364206888420DD090420BD0B0F1E3
:10269000804F08D00B49884205D00B49884202D0B0
:1026A0000A49884204D1816801F00701062903D054
:1026B000016841F001010160002010BD002C0140C3
:1026C000003401400004004000080040000C0040BD
:1026D00070477047F8B5026804461068D1685369BE
:1026E00010F00F0F4FF0000553D003F0010601F476
:1026F000907737435FD0C20705D0CA0503D5226C57
:1027000042F001022264420705D5DA0703D0226CA9
:1027100042F002022264820705D5DA0703D0226C58
:1027200042F004022264020707D501F0200232437E
:1027300003D0226C42F008022264226C002A34D0BA
:10274000800604D5880602D5204600F076FF206872
:102750004069216CC0F38010090700D430B32046D3
:1027600000F04AFF2068416949061BD5416921F004
:1027700040014161A06BA8B158494163A06BFEF7CD
:102780006BF8002811D0A06B416B01B0BDE8F040A0
:10279000084783060FD58B060DD52046BDE8F840C7
:1027A00000F04BBF2046FFF794FFF8BD2046FFF72F
:1027B00090FF2564F8BD266B2023012E52D1C6065A
:1027C00050D5CE064ED5106850680090506940062E
:1027D0002AD5A16B086840680004000CEAD0A68DD9
:1027E0008642E7D9E0858869202818D0D06820F48F
:1027F0008070D0602068416921F00101416120684A
:10280000416921F04001416184F83E302563206830
:10281000C16821F01001C160A06BFDF7F9FFA08D28
:10282000E18D401A81B219E0A08DE18D401A81B28C
:10283000E08D0028BED00029BCD0D06820F4907074
:10284000D0602068426922F00102426184F83E3083
:1028500025632068C26822F01002C2602046FFF79C
:1028600037FFF8BD05062BD50D0629D594F83D0098
:102870002128F6D1A068B0F5805F01D12069B0B100
:10288000206A411C2162216800784860E08C401E6B
:102890000004000CE084E4D12068C16821F08001CC
:1028A000C1602068C16841F04001C160F8BD206A84
:1028B0000088C0F308005060206A801C2062E5E7B1
:1028C0004006F3D54806F1D5D168204621F04001F5
:1028D000D16084F83D3000F001F9F8BDF334000810
:1028E00070B5040004D094F83D00002510B106E056
:1028F000012070BD84F83C50204600F023F82420CD
:1029000084F83D002068C16821F40051C160204670
:1029100000F0EEFE2068016921F490410161206819
:10292000416921F02A0141612068C16841F40051E8
:10293000C1602564202084F83D0084F83E0000201A
:1029400070BD00002DE9F04186B0002406460094D9
:1029500001940294039400682E49884256D12E486F
:10296000816941F480418161816901F48041049170
:10297000816941F0040181618069284D00F0040003
:1029800004904FF400700090022001900320039007
:1029900069462846FEF7A4F92815CDE900046946E2
:1029A00028460294FEF79CF91E4D1D484FF0800802
:1029B000C5E90004C5E9024820200702EF612C6147
:1029C000C5E905402846FEF703F908B1FDF71EFFEB
:1029D000B5636E621248144D143801C51020A5E885
:1029E0001101114845F810496C61C5E90647FEF729
:1029F000EFF808B1FDF70AFF7563002211462520A4
:102A00006E62FEF715FB2520FEF704FB06B0BDE85D
:102A1000F081000000380140001002400008014031
:102A200058000240200300206403002090F83E304C
:102A3000202B0ED159B152B190F83C30012B08D067
:102A4000012380F83C300023036300F0ADBE012079
:102A500070470220704770477047000070B5044609
:102A600090F83D00202830D169B362B394F83C005F
:102A700001282AD0012084F83C002162A284E2844B
:102A800000252564212084F83D00636B104898627E
:102A9000636B1048D862636B0F481863606B134612
:102AA00045632668606B321DFEF7D0F821686FF031
:102AB0004000086084F83C502068416941F0800182
:102AC0004161002070BD012070BD022070BD00007A
:102AD000C1350008EF35000803350008704770471E
:102AE000FEE70000F0B500230A24302537261F46F4
:102AF00011E000BFB4EB107F02D905EB107C01E0C0
:102B000006EB107C01F813C001EB430C00015B1CC9
:102B10008CF80170DBB29342ECD3F0BD2DE9F04F9D
:102B200085B000243D480094019402940394816987
:102B300041F040018161816901F0400104918169A6
:102B400041F010018161816901F0100104918169F6
:102B500041F080018161816901F080010491816906
:102B600041F004018161816901F0040104918169EE
:102B700041F020018161816901F0200104918169A6
:102B800041F0080181618069DFF8949000F008004D
:102B90000490002220214846FEF7A6F9DFF884A021
:102BA0004FF47077002239465046FEF79DF9DFF862
:102BB00078B0002203215846FEF796F94FF4487882
:102BC000002241461948FEF78FF9202001250226F0
:102BD000CDE90005CDE9024669464846FEF780F892
:102BE00000970396CDE9015469465046FEF778F800
:102BF0000320CDE90005CDE9024669465846FEF7B7
:102C00006FF8CDF800800396CDE901546946074876
:102C1000FEF766F805B0BDE8F08F00000010024036
:102C200000180140001C014000140140000C01404C
:102C300010B596B000240F9410941194129413942C
:102C40001C2108A81494FDF7F9FB20216846FDF724
:102C5000F5FB2848264901601421C0E901144FF40E
:102C60006161C0E9031444618461FFF74FFA08B160
:102C700072B6FEE74FF480500F900FA91D48FFF782
:102C800093FA08B172B6FEE71A48FFF798FC08B14C
:102C900072B6FEE7139413A916481494FFF7F8F9D7
:102CA00008B172B6FEE76020CDE908040A940B94DF
:102CB0000C940D94082208A90E480E94FFF71CFCF2
:102CC00008B172B6FEE700944FF40050CDE904401D
:102CD000029401940394694606480794FFF7AEF9FD
:102CE00008B172B6FEE70348FFF7B6FB16B010BD99
:102CF000002C0140BC01002010B58EB000240794C8
:102D0000089409940A940B941C2168460C94FDF7CE
:102D100095FB1E481C4901601421C0E901144FF4C1
:102D20006161C0E903148461FFF7F0F908B172B67C
:102D3000FEE74FF48050079007A91448FFF734FAD4
:102D400008B172B6FEE71148FFF739FC08B172B658
:102D5000FEE70B940BA90D480C94FFF799F908B105
:102D600072B6FEE76020CDE90004029408226946AD
:102D700006480494FFF7C0FB08B172B6FEE70348AB
:102D8000FFF76AFB0EB010BD0004004004020020F3
:102D900010B58CB024216846FDF750FB002416487E
:102DA000099414490A94C0E900144FF6FF71C0E970
:102DB0000241046184610320CDE900040120CDE9D2
:102DC00002040494CDE90540079469460A48089432
:102DD000FFF755FA08B172B6FEE7099409A906484B
:102DE0000A94FFF755F9002801D072B6FEE70CB03F
:102DF00010BD0000000800404C02002010B58CB04F
:102E000024216846FDF71AFB00241648099414494A
:102E10000A94C0E900144FF6FF71C0E90241046151
:102E200084610320CDE900040120CDE9020404946B
:102E3000CDE90540079469460A480894FFF71FFA50
:102E400008B172B6FEE7099409A906480A94FFF78B
:102E50001FF9002801D072B6FEE70CB010BD0000CB
:102E6000000C00409402002010B500220F491048C9
:102E700000F0B0FF08B1FDF7C9FC0E490C4801F0A5
:102E80008DF908B1FDF7C2FC0B49094800F0AEFD11
:102E900008B1FDF7BBFC064801F0D6F9002803D0C5
:102EA000BDE81040FDF7B2BC10BD000038000020A6
:102EB000501100207401002088000020FEE7FEE78A
:102EC0002DE9F84F044640F68F7B48F60F7A4FF015
:102ED00002094FF4806874E1B0F8441011F00F0655
:102EE0003AD030F8267039047DD530F8261001EA42
:102EF0000B0141F0800120F8261006EB860004EB60
:102F0000C00595F8740105F5B47500286CD0E87813
:102F100002286AD02878226832F8201048F68F7389
:102F2000194048F2C003194322F820102878D4F839
:102F300000C03CF82010BCF8502049047ED509EBB5
:102F4000C000111808EB41003CF800008005800D1E
:102F5000009074D02A89D8E0C9062DD4018801EAEE
:102F60000A0141F400410180216804F12805B1F80B
:102F700050202B7809EBC300024408EB4200085AAA
:102F8000C0F309006064E16B0844E063002120465F
:102F9000FEF79FF894F8240000289CD0A869002828
:102FA00099D194F82400216840F08000A1F84C00E9
:102FB000002084F8240004E1018804F5B4750A05B2
:102FC00021D5B0F850202B78062101EBC3010A442B
:102FD00008EB4201405A04F52C71C0F30903EB6180
:102FE000EA88206802E0ACE068E07AE001F0C8FF1F
:102FF0002168088800EA0B0040F080000880204625
:10300000FEF7E3FCDDE00904D5D5018801EA0B01F8
:1030100041F0800101802068B0F850202B78062113
:1030200001EBC3010A4408EB4201405A83059B0DA2
:10303000EB6110D0696971B1EA8801E058E056E0AF
:10304000206801F09DFFE969686908446861002112
:103050002046FEF747F82068018809052DD4B0F80E
:1030600050100844296900F20C4051B13E2910D893
:103070004A08C90700D0521C4FF6FF7101EA8221AD
:103080000FE0018821F4F8410180018841F40041FA
:1030900007E04A09C90600D1521E4FF4004141EA37
:1030A00082210180206801884BF68F72114081F4E3
:1030B000405148F280021143018082E0D4F800C000
:1030C000BCF850102A78062000EBC200014408EB3F
:1030D00041003CF800008005800D00901AD0EA887D
:1030E00013E03A4629462046FEF75AF8009011E0D0
:1030F000062101EBC000111808EB41003CF800006C
:103100008005800D009005D06A8903466046696994
:1031100001F036FFE96900980844E86169690098A0
:1031200008446861A86918B129690098814204D9E6
:1031300029782046FDF7D6FF03E02946206801F0F4
:1031400005FC38063DD506EB860004EBC00120687F
:1031500030F8262002EA0A0242F4004220F8262033
:1031600091F82B002831032804D018B1022824D16B
:10317000F80522D42368B3F850200D7809EBC50078
:10318000024408EB4200185A8A69C0F309008242DF
:103190000CD9121A8A610BD04A6902444A61CA6981
:1031A0001044C861206801F0D1FB0AE0002088616A
:1031B000E9B22046FDF78DFF03E03A462046FEF7D0
:1031C00062F82068B0F8441009043FF585AE00208D
:1031D000BDE8F88F70477047FDF7C6BE30B595B0B3
:1031E00028216846FDF72AF914210AA8FDF726F9D7
:1031F00018210FA8FDF722F90920012100904FF4B2
:103200008030002404910691CDE901040225CDE926
:1032100007504FF4E01009906846FEF76BFD08B1C7
:1032200072B6FEE70F20CDE90A054FF48060CDE9C4
:103230000C4002210AA80E94FEF770FC08B172B689
:10324000FEE7102014940F900FA8FEF7F1FB002862
:1032500001D072B6FEE715B030BD7047F0B5026818
:103260001C4B1D4D1D4E1E4F1E4C4FF0804C984266
:1032700009D0A04207D0604505D0A84203D0B04293
:1032800001D0B84204D122F0700E4A6842EA0E0220
:10329000984209D0A04207D0604505D0A84203D08B
:1032A000B04201D0B84203D122F44075CA682A4323
:1032B0004D6922F080022A4302608A68C2620A686D
:1032C0008262984201D0A04201D1096901630121C3
:1032D0004161F0BD002C01400004004000080040A6
:1032E000000C00400034014010B501F01F03012123
:1032F000046A99408C430462016A9A401143016256
:1033000010BD10B5846842EA032224F47F440A43C6
:103310002243826010BD826822F070020A4342F0AC
:103320000701816070470000F0B5026A22F00102D7
:103330000262036A42688469124E24F073050C68C5
:103340002C4323F002058B682B430D4DA84201D07E
:10335000B04205D123F00807CB683B4323F00403B8
:10336000A84201D0B04205D14D6922F44072154304
:103370008A692A4342608461496841630362F0BDFF
:10338000002C014000340140F0B5026A22F0100226
:103390000262026A436884690D6824F4E64444EAE0
:1033A00005248D6822F0200242EA05120F4D104ECE
:1033B000A84201D0B04206D1CF6822F0800242EA92
:1033C000071222F04002A84201D0B04207D14D6955
:1033D00023F4406343EA85038D6943EA8503436030
:1033E0008461496881630262F0BD0000002C0140E5
:1033F00000340140F0B5026A22F480720262026A6F
:103400004368C46922F4007224F073050C68124EFC
:103410002C438D6842EA05220E4DA84201D0B042ED
:1034200006D1CF6822F4006242EA072222F48062C9
:10343000A84201D0B04207D14D6923F4405343EA7A
:1034400005138D6943EA05134360C4614968C1638C
:103450000262F0BD002C01400034014030B5026A28
:1034600022F480520262046A4268C3690D6823F440
:10347000E64343EA05238D6824F4005444EA053406
:10348000084DA84202D0084DA84204D14D6922F44B
:10349000804242EA85124260C36149680164046265
:1034A00030BD0000002C01400034014010B5036A1B
:1034B000046A24F001040462846924F0F00444EAFC
:1034C000021423F00A020A438461026210BD10B59F
:1034D000036A23F0100303628369046A23F47043D0
:1034E00043EA023224F0A00343EA0111826101623F
:1034F00010BD10B5406A0021C185C184FFF7E9F80D
:1035000010BD70B5446A2068406994F83D10C0F35E
:10351000C0100025212904D118B1E584204600F00F
:1035200083F82068406994F83E10C0F38010222987
:1035300004D118B1E585204600F05EF8206C40F01B
:10354000100020642046FFF7C4F870BD10B5014696
:10355000406A0968096889061BD40021C185016891
:10356000CA6822F48072CA6001684A6922F00102C6
:103570004A6101684A6922F040024A61202180F8CC
:103580003E10016B012904D10168CA6822F01002C3
:10359000CA60016B012902D0FFF75DFA10BD818D71
:1035A000FFF796F810BD10B5406A016B012902D0F3
:1035B000FFF752FA10BD818D4908FFF789F810BD59
:1035C00010B50146406A0968096889060CD40021D3
:1035D000C18401684A6922F080024A610068C168BA
:1035E00041F04001C16010BDFFF778FA10BD10B581
:1035F000406AFFF774FA10BD0168CA6822F490723D
:10360000CA6001684A6922F001024A61016B01291E
:1036100004D10168CA6822F01002CA60202180F833
:103620003E100021016370470168CA6822F0C002A1
:10363000CA60202180F83D10704708B590F83E1010
:10364000222901D0022008BD82684FF480539A429B
:1036500001D1016921B1816A9A421BD04AB10AE0C5
:103660000268816A5268C2F308020A80816A891C72
:1036700008E0026972B10268526802F07F020A70C3
:10368000816A491C8162C18D491E0904090CC185EA
:1036900003D019E002685268F1E70168CA6822F0B5
:1036A0002002CA600168CA6822F48072CA60016898
:1036B0004A6922F001024A61202180F83E10016B24
:1036C000012903D0FFF7C7F9002008BD00210163DD
:1036D0000168CA6822F01002CA6001680A68D2064E
:1036E00002D50A6849680091818DFEF7F1FFEBE78A
:1036F00070B5044600680169E26821F44051114345
:1037000001612169A0680843616908432168CA68AA
:1037100041F20C639A430243CA6020684169A2697E
:1037200021F44071114341611E492068884202D151
:10373000FEF79AFA01E0FEF787FA00EBC00101EB11
:103740000012606864218000B2FBF0F3B3FBF1F378
:103750006FF018067343B2FBF0F5B2FBF0F605EB21
:103760008305322303EB0515B5FBF1F5B6FBF1F646
:1037700005F0F00505EB0615B2FBF0F6B2FBF0F034
:10378000B0FBF1F06FF01802504306EB800003EB42
:103790000010B0FBF1F0216800F00F0028448860B1
:1037A00070BD00000038014038B581628285002577
:1037B000134604460564222084F83E00A26B134899
:1037C0009062A26B1248D062A26B12481063A06B89
:1037D0000A4645632168A06B091DFDF737FA20688A
:1037E00001684168009184F83C50C16841F48071DF
:1037F000C1602068416941F001014161206841696F
:1038000041F040014161002038BD00004D35000805
:10381000A7350008033500080148FEF75BBF00002C
:10382000DC0200202DE9F041D0F8C032D0F8B822F7
:10383000CAB101EB810500EB85040026E7693FB1C1
:1038400003EBC5039B6BB7FBF3F503FB157323B1C8
:10385000C2F814620020BDE8F08100231A46E66138
:1038600000F07FFCF6E70220F5E770B50546D0F8DA
:10387000B84200F07AFBC4F80C02D5F8B80248B19F
:10388000D5F8BC12D4F80402CA6804F50371904755
:10389000002070BD022070BD70B504460026812155
:1038A00000F0B6FA002501212046E56200F0B0FAEA
:1038B00082212046C4F86C5100F0AAFA2564D4F89D
:1038C000B80248B1D4F8BC0204F52E7440688047B1
:1038D000206800F016FE2560304670BD10B5D0E9B6
:1038E000AE4159B194F80002FF2807D08B6894F8D4
:1038F000012221469847FF2084F80002002010BDD5
:103900000A210180004870479C000020432101806B
:1039100000487047EC0000204321018000487047B8
:10392000A80000204321018000487047300100209A
:103930002DE9F04104460026007C4FF40077012574
:1039400090B3402302228121204600F063FB4023F4
:10395000E56202220121204600F05CFB08230322DD
:1039600082212046C4F86C5100F054FB4FF40770DC
:10397000256400F0C7FDC4F8B802F8B10546D4F8D4
:10398000BC02006880470020C5F81402C5F8180280
:10399000207CD5F8042298B140230121204600F074
:1039A00045FB3046BDE8F081FFE73B46022281211E
:1039B000204600F02FFB3B46E562CAE70126F0E710
:1039C0003B46EAE710B5D0F8B81269B1027C002A8C
:1039D000D1F8042205D04023012100F027FB00206C
:1039E00010BD4FF40073F7E7022010BD024602201D
:1039F000002902D00020C2F8BC127047D0F8B802EB
:103A0000C0F8041200207047D0F8B802C0F81022A5
:103A1000C0F80812002070472DE9FC410546D0F897
:103A2000B87200208DF80000ADF804000646087852
:103A30000C4610F0600121D020293BD1E288AAB1C8
:103A40000006607807D5D5F8BC128B6839469847D0
:103A5000E288394626E087F80002A07987F801025B
:103A6000E2883946284600F06AF828E0D5F8BC120A
:103A7000607800228B682146984720E0607820B16A
:103A80000A2809D00B2815D110E095F89C020328CC
:103A900010D1022201A905E095F89C02032809D162
:103AA00001226946284600F064F808E095F89C0277
:103AB000032804D02146284600F036F80226304676
:103AC000BDE8FC8110B5D0F8B812A1B1D1F814222C
:103AD0000AB1012010BD0122C1F81422D1F8102230
:103AE0000263B1F8102293B2D1F80822812100F0CC
:103AF00038FB002010BD022010BD10B5D0F8B42254
:103B000052689047002010BD134610B50A460021A8
:103B100000F08CFA002010BD134610B50A460021B3
:103B200000F01FFB002010BD10B50446802100F0FE
:103B3000FDFA2046BDE81040002100F0F7BA10B5AC
:103B40000323C0F85C21C0F89432C0F8602113460A
:103B50000A46002100F06AFA002010BD10B50521C8
:103B60000023C0F894121A46194600F05FFA0020AC
:103B700010BD10B50223C261C0F894320262134630
:103B80000A46002100F0EDFA002010BD10B5042116
:103B90000023C0F894121A46194600F0E2FA0020F9
:103BA00010BD000010B50A46024903A000F0E2F87B
:103BB000004810BD1414002043444320436F6E6638
:103BC00069670000122008800048704758000020F4
:103BD00010B50A46024903A000F0CCF8004810BD19
:103BE0001414002043444320496E74657266616377
:103BF0006500000004200880004870475400002041
:103C000010B50A46024903A000F0B4F8004810BD00
:103C10001414002053544D6963726F656C656374AE
:103C2000726F6E696373000010B50A46024903A003
:103C300000F0A0F8004810BD1414002053544D3378
:103C400032205669727475616C20436F6D506F72CB
:103C50007400000010B51A2008800A480168001D91
:103C60000468001D0068081809D008220649FEF7FC
:103C700039FF0549042210312046FEF733FF024880
:103C8000801E10BDE8F7FF1F6E000020F8B5044647
:103C90000020ADF8000048880D46010A082948D2E6
:103CA000DFE801F04704091747473C45D4F8B01254
:103CB000207C0A6819E0207C02260028D4F8B4028F
:103CC00005D0C16A68468847014646703EE0816A71
:103CD000F8E7C0B206282CD2DFE800F0030A10147F
:103CE000181CD4F8B002426805E0694690471CE011
:103CF000D4F8B0028268E2B1207CF6E7D4F8B002D2
:103D0000C268F8E7D4F8B0020269F4E7D4F8B00268
:103D10004269F0E7D4F8B0028269ECE7207C40B950
:103D2000D4F8B402416B6846884701460EE0207C17
:103D300020B129462046FFF7F7FEF8BDD4F8B402BB
:103D4000016B68468847014607204870BDF80000AF
:103D500048B1EA8852B1824200D90246ADF800204B
:103D60002046FFF706FFE8880028E6D12046FFF747
:103D70000DFFF8BD70B5002300281ED004460025B5
:103D800002E06D1CEDB2641C2678002EF9D10224ED
:103D900004EB450414801278CA545B1C0322CA54F5
:103DA00000245B1C06E0CA545B1CDAB28C54521C23
:103DB000D3B2401C0278002AF5D170BD01004FF04B
:103DC000000004D0012901D0022901D0022070474F
:103DD0000120704710B580B1D0F8B43213B1002380
:103DE000C0F8B43209B1C0F8B012012180F89C12B9
:103DF000027000F0BFF8002010BD022010BD10B509
:103E0000D0F8C002FDF79EF9BDE81040FFF7D6BF1D
:103E100010B5D0F8C002FDF76FF9BDE81040FFF70C
:103E2000CDBF2DE9F0411746044651B1D4F8B40294
:103E300042691AB194F89C02032851D00220BDE8CF
:103E4000F081D4F89432002504F11400022B03D041
:103E5000042B3AD0C3B33CE0D0E903639E4207D9B8
:103E6000F11AC1608AB239462046FFF755FE12E0CA
:103E70008068B0FBF3F103FB110199B9984211D3AB
:103E8000D4F8981288420DD2002211462046FFF73E
:103E900043FEC4F8985200231A461946204600F003
:103EA000C5F816E0D4F8B402C16829B194F89C02B0
:103EB000032801D1204688478021204600F036F9AA
:103EC0002046FFF74BFE04E0FFE78021204600F08C
:103ED0002DF994F8A002012804D184F8A05201E041
:103EE000204690470020AAE770B51546044649B120
:103EF000D4F8B40282691AB194F89C02032830D035
:103F0000022070BDD4F8941204F5AA70032902D0DF
:103F100005291ED027E0D0E903218A420BD9531A84
:103F2000C3600846834200D303469AB2294620461E
:103F3000FFF7EAFD17E0D4F8B402016929B194F85B
:103F40009C02032801D1204688472046FFF71EFE29
:103F500009E000200146C4F89402204600F0E6F88B
:103F600001E020469047002070BDD0F8C002FDF768
:103F700022BB000010B504461C481D49C0F8E842A9
:103F8000C4F8C00201600821416002218160002163
:103F90008161C1610162FDF75DFC08B1FCF736FC8F
:103FA0000022D4F8C0021823114604F53074FDF73E
:103FB00071F85823002280212068FDF76BF8C02398
:103FC000002281212068FDF765F84FF488730022F4
:103FD00001212068FDF75EF84FF4807300228221F2
:103FE0002068FDF757F8002010BD000004200020D5
:103FF000005C00400A0601F07F01D0F8C00201EB2E
:10400000810100EBC10002D590F82A00704790F8BA
:104010006A01704710B51C461346D0F8C00222460C
:10402000FDF7D2FABDE81040FFF7C8BE10B5D0F8D2
:10403000C002FDF7F9FABDE81040FFF7BFBE70B54A
:104040000022044640231146FFF7E4FF40260125E5
:10405000C4F864613346002280212046C4F85851D8
:10406000FFF7D8FF6662A56184F89C520020C4F86F
:1040700094026060C4F8A402D4F8B80228B1D4F85D
:10408000B4020021426820469047002070BD90F89D
:104090009C12042903D190F89D1280F89C120020F4
:1040A000704710B590F89C12032904D1D0F8B412CF
:1040B000C96901B18847002010BD01740020704714
:1040C00010B5D0F8C002FDF76CFCBDE81040FFF75A
:1040D00075BE70B5044600F52A70054600F04AF832
:1040E0000120C4F89402B4F8AE02C4F8980294F81F
:1040F000A80210F01F010AD001290DD0022910D00A
:1041000000F08001204600F011F8002070BD294623
:10411000204600F09EF8F8E72946204600F0CAF94C
:10412000F3E72946204600F01DF9EEE710B5D0F878
:10413000C002FDF792FABDE81040FFF73FBE10B590
:10414000D0F8C002FDF748FCBDE81040FFF736BECE
:1041500090F89C1280F89D12042180F89C12002097
:10416000704710B5D0F8C002FDF7B0FABDE81040B6
:10417000FFF724BE0A7802704A7842708A78CB78BA
:1041800002EB032242800A794B7902EB0322828000
:104190008A79C97902EB0121C1807047024600206B
:1041A00011B1C2F8B41270470220704710B5D0F8B0
:1041B000B42202241AB11268904700B900242046A4
:1041C00010BD000070B50E461E4D8978044629705A
:1041D000012931D894F89C0202280BD003280FD073
:1041E00031462046FFF7A0FC29782046BDE8704004
:1041F000FFF783BCD9B10320616084F89C0209E019
:1042000071B16068884212D0C1B22046FFF775FCD8
:10421000297861602046FFF7C9FF02280CD006E02C
:10422000022084F89C0220466160FFF766FC20466D
:10423000BDE87040FFF7AABC31462046BDE870409B
:10424000FFF772BC9800002010B5FFF778FF002040
:1042500010BD2DE9F0410A78002612F0600208D066
:10426000202A01D0402A70D1D0F8B4229268904719
:104270006DE04B78002201250A2B66D2DFE803F0BF
:10428000405D6557650805652C29FFF7FFFC5EE07A
:1042900004468888D8B9C888C8B94888802816D202
:1042A00000F07F0794F89C02032810D084F89E72D7
:1042B00039462046FFF704FF2046FFF767FC1FB191
:1042C000022084F89C0242E084F89C523FE02046A1
:1042D0003BE0FFF777FF3AE0CB88012B35D190F830
:1042E0009C32012B04D0022B02D0032B2DD104E0F1
:1042F0008260012200F1080116E00122011D13E095
:1043000090F89C22012A03D0022A01D0032A1CD152
:10431000CA88022A19D1C560D0F8A41209B10321B4
:10432000C160022200F10C01FFF723FC0FE0498875
:1043300001290CD1C0F8A45211E090F89C32012B55
:1043400008D0022B06D0032B04D0FFF7EDFB30463C
:10435000BDE8F08149880129F9D1C0F8A422FFF70E
:1043600015FCF4E72DE9F0410A46044610780027D1
:10437000097910F060030AD0202B01D0402B50D1D6
:10438000D4F8B40211468368204698478FE0C0F302
:104390004110012806D05078D0B301282AD0032834
:1043A0003FD107E0D4F8B402114683682046BDE847
:1043B000F041184794F89C02022802D0032872D1D9
:1043C0000AE071B380296ED02046FFF7AFFE80214E
:1043D0002046FFF7ABFE6AE0508838B931B180293A
:1043E00004D0D08810B92046FFF7A0FE2046FFF782
:1043F000CDFB5CE094F89C020228E2D0032852D165
:10440000508898BB4806F1D02046FFF7F8FCEDE74E
:10441000FFE794F89C020026022803D0032842D12B
:1044200012E040E009B180293DD1080601F07F008B
:1044300000EB800004EB800101D5143101E001F5AF
:10444000AA7102220E602AE0080601F00F0000EBBC
:10445000800004EB80000AD5806920B301F07F0062
:1044600000EB800004EB800514350BE01FE0D0F872
:104470005801C0B101F07F0000EB800004EB800523
:1044800005F5AA7541B1802906D02046FFF7B2FD97
:1044900010B10120286000E02E600222294620464B
:1044A000FFF767FB03E011462046FFF73DFB384668
:1044B000BDE8F08170B5054608780C4610F0600044
:1044C00003D0202801D0402816D195F89C0201285D
:1044D00003D0022801D003280ED1207901280BD85F
:1044E000D5F8B402826828469047E188014306D196
:1044F0002846FFF74BFB02E02846FFF715FB00209C
:1045000070BD704700487047E41D00202DE9F0475A
:104510000C78002630F8243048F68F121340CA7801
:10452000002A7DD0012A7CD0022A02D0032A7FD023
:10453000012648F28002134320F824300D7830F829
:10454000254048F68F731C402C43144320F8254027
:104550000D7B48F2C00C48F6BF744CF280074BF656
:104560008F79EDB391F80080C24630F8285048F2B8
:1045700080181D4045EA080520F82A50B0F8505030
:1045800091F80080054405EB0815B1F8088028F083
:104590000108A5F80084B0F8505091F80080054457
:1045A00005EB0815B1F80A8028F00108A5F8088481
:1045B0004D78002D0D7830F825804FEA48487DD0A1
:1045C000B8F1000F07DA30F8258008EA030848EA56
:1045D000070820F825800F7830F827506D0600E096
:1045E0002CE006D530F827501D4045EA0C0520F890
:1045F0002750CB780D78012B30F8253003EA0403DF
:1046000001D083F02003134320F825300B7830F8D5
:10461000231001EA0901114320F82310304602E07B
:1046200003E008E004E0BDE8F08743F4007380E7AE
:1046300043F4C0637DE743F480637AE74D782DB39C
:10464000B0F850500F78054405EB0715CF8827F0D8
:104650000107A5F800740F7830F827506D0606D5CD
:1046600030F827501D4045EA0C0520F82750CB783C
:10467000012B06D00B7830F82310214081F0200167
:10468000C9E70B7830F823102140C4E7B0F8504058
:104690000D78044404EB0514CD8825F00105A4F839
:1046A0000854B0F850400D78044404EB05140D692B
:1046B00004F20C4475B13E2D14D800E030E04FEA0E
:1046C000550CED0701D00CF1010C4FF6FF7505EA12
:1046D0008C2511E0258825F4F8452580258845F4AA
:1046E000004509E04FEA551CED0601D1ACF1010C83
:1046F0004FF4004545EA8C2525800D7830F825409B
:10470000640405D530F825401C403C4320F8254082
:104710000B7830F8231001EA090181F440517AE75F
:10472000B8F1000F07DA30F8258008EA030848EAF4
:10473000070820F825800F7830F827506D0606D539
:1047400030F827501D4045EA0C0520F827500D7819
:1047500030F8253003EA090383F44053134320F86B
:1047600025308EE7002070472DE9F04391F80C804A
:104770004F780A7848F6BF7C4BF68F7948F2800371
:1047800048F2C0054CF2800648F68F74B8F1000F6D
:1047900028D0002F30F822704FEA474748D0002F2A
:1047A00005DA30F822702740374320F822700A7863
:1047B00030F822707F0605D530F8227027402F434D
:1047C00020F822700D7830F825202240324320F85E
:1047D00025200C7830F8242002EA0C021A4320F835
:1047E00024201AE07FB130F82260760605D530F833
:1047F000226026402E4320F822600A7830F82210EA
:1048000001EA0C010EE030F822506D0405D530F8B5
:1048100022502540354320F822500A7830F82210E3
:1048200001EA0901194320F822100020BDE8F083B5
:10483000002F05DA30F822702740374320F8227025
:104840000A7830F82260760605D530F822602640D6
:104850002E4320F822600E7830F8262022402A438A
:1048600020F826200C7830F8242002EA09021A43A6
:1048700020F82420C1E70020704700207047012164
:1048800020F8401F00210180818001820846704786
:1048900030F8401F21F43F41018000207047002084
:1048A000704730B50A7BB2BB4A7848F68F7548F23C
:1048B0008004C2B10B7830F82320520607D530F8B7
:1048C00023202A4048F2C0052A4320F82320CA7832
:1048D000012A20D00A7830F8221048F6BF73194018
:1048E00081F0200114E00A7830F822305B0407D50B
:1048F00030F822302B404CF280052B4320F8223038
:104900000A7830F822104BF68F73194081F4405129
:10491000214320F82210002030BD10B54A780978D4
:10492000002A48F2800330F8212005D048F6BF74F1
:10493000224082F0100204E04BF68F74224082F491
:1049400080521A4320F82120002010BD2DE9F047A5
:104950000E464B78097B04464FF0000948F68F72EB
:1049600048F2800A4FF6FF774FF40048012B09D038
:1049700000296ED0F07802286CD001286BD001207D
:10498000BDE8F087B5693069854200D90546C9B1EF
:10499000F17848F28013022923D0317834F82100CD
:1049A0001040184324F82100306A401B30623078F0
:1049B00034F82010490671787ED500297DD0012970
:1049C0007CD03FE1ABB2F2882046716900F0F6FA84
:1049D000B4F850003178204400EB0110A0F80454E2
:1049E000EAE0316A81426AD9317834F82100104016
:1049F000184324F82100306A401B3062307834F8C4
:104A00002010490671786CD511B1012924D02AE013
:104A1000B4F85010214401EB001000F20C404DB1ED
:104A20003E2D0FD86908EA0700D0491C07EA81210A
:104A3000018018E0018821F4F8410180018841F4E7
:104A40000041F5E76909EA0600D1491E48EA8121DB
:104A5000EEE79CE1BCE126E2B4F85020111901EB2D
:104A60000010A0F80C547289ABB22046716900F0B6
:104A7000A5FA7069284470613169306A884202D9A8
:104A8000401B306202E00546C6F82090707800288E
:104A90007CD1B4F850003178204400EB011000F2D2
:104AA00004406DB13E2D13D86908EA0700D0491CB7
:104AB00007EA8121018012E001E19BE0BBE084E094
:104AC000018821F4F8410180018841F40041F1E7B7
:104AD0006909EA0600D1491E48EA8121EAE73289DC
:104AE00065E011B1012921D027E0B4F8501021442C
:104AF00001EB001000F204404DB13E2D0FD86908C3
:104B0000EA0700D0491C07EA8121018015E00188ED
:104B100021F4F8410180018841F40041F5E7690979
:104B2000EA0600D1491E48EA8121EEE7B4F85010A8
:104B3000214401EB0010A0F804543289ABB22046A6
:104B4000716900F03BFA7069284470613169306A1C
:104B5000884202D9401B306202E00546C6F8209028
:104B6000707800287ED1B4F850003178204400EBF2
:104B7000011000F20C4055B13E2D10D86908EA072B
:104B800000D0491C07EA812101800FE072E0018812
:104B900021F4F8410180018841F40041F4E76909FA
:104BA000EA0600D1491E48EA8121EDE77289ABB2DD
:104BB0002046716900F002FA317834F8210048F695
:104BC000BF72104080F03000C0E1327834F822002B
:104BD00048F68F63184040EA0A0024F82200B4F82F
:104BE00050003278204400EB02108BB2A0F804345D
:104BF0003289DDE7B4F85010214401EB001000F2D7
:104C00000C404DB13E2D0FD86908EA0700D0491C71
:104C100007EA8121018015E0018821F4F841018033
:104C2000018841F40041F5E76909EA0600D1491E0F
:104C300048EA8121EEE7B4F85020111901EB001089
:104C4000A0F80C547289ABB22046716900F0B6F935
:104C50007069284470613169306A884203D9401B09
:104C6000306203E06EE00546C6F82090002DA3D028
:104C7000707858B101287FF41EAFB4F85000317835
:104C8000204400EB0110A0F8045428E7B4F85000C9
:104C90003178204400EB011101F204413E2D06D889
:104CA0006808EA0700D0401C07EA802005E0680990
:104CB000EA0600D1401E48EA802008800FE711B1C3
:104CC000012921D027E0B4F85010214401EB001055
:104CD00000F204404DB13E2D0FD86908EA0700D01C
:104CE000491C07EA8121018015E0018821F4F8417F
:104CF0000180018841F40041F5E76909EA0600D125
:104D0000491E48EA8121EEE7B4F85010214401EB36
:104D10000010A0F804543289ABB22046716900F04B
:104D20004DF97069284470613169306A884202D94E
:104D3000401B306202E00546C6F82090002D96D058
:104D4000707858B101287FF420AFB4F850100819DA
:104D5000317800EB0110A0F80C5427E7B4F85000AC
:104D60003178204400EB011101F20C413E2D06D8B0
:104D70006808EA0700D0401C07EA802005E06809BF
:104D8000EA0600D1401E48EA802008800EE7B1699B
:104D90003069814202D9091AB161B5E00846C6F806
:104DA0001890B1E0088820F4F8400880088840F4A2
:104DB00000400BE03E2875D84208C00700D0521CC6
:104DC00007EA822002E000BF48EA82200880B5E0BE
:104DD00093B9B4F850003178204400EB01103169E8
:104DE00000F2044069B13E2913D84B08C90700D02E
:104DF0005B1C07EA83210180707888B1012832D0DA
:104E00003AE0018821F4F8410180018841F4004131
:104E1000F1E74B09C90600D15B1E48EA8321EAE7A6
:104E2000B4F850003178204400EB0110316900F2F1
:104E30000C4049B13E290FD84B08C90700D05B1C74
:104E400007EA8321018017E0018821F4F8410180FD
:104E5000018841F40041F5E74B09C90600D15B1E0A
:104E600048EA8321EEE7B4F850100819317800EBD6
:104E70000110318AA0F80C14F069A8B3317834F825
:104E80002100430401D5430603D444F240031842F1
:104E900054D134F82100104048F2C002104324F8E5
:104EA00021004BE03CE0B1693069814202D9091A26
:104EB000B16102E00846C6F818908BB9B4F85010FA
:104EC0003278214401EB021101F2044168B13E281D
:104ED00013D84208C30700D0521C07EA82220A8076
:104EE000717889B1012921D028E00A8822F4F8429A
:104EF0000A800A8842F40042F1E74209C30600D161
:104F0000521E48EA8222EAE7B4F85010327821446F
:104F100001EB021101F20C4100287FF44BAF41E795
:104F20004209C0067FF450AF521E4DE7B4F850203E
:104F30001119327801EB0211A1F80C04317834F820
:104F400021004BF68F72104080F4405040EA0A0076
:104F500024F82100002013E50021A0F844104FF4AC
:104F60003F41A0F840100020704700000148FCF7C6
:104F7000C7BB000004200020B0F8440070470000C8
:104F800010B500EB42005C0800F5806009D000BF5E
:104F900030F8042B01F8012B120A01F8012B641ED2
:104FA000F6D1DA0701D00088087010BD00207047E4
:104FB00011B98021A0F84C100020704710B55B1C7F
:104FC00000EB42005B0800F5806009D011F8012B6E
:104FD00011F8014B42EA042220F8042B5B1EF5D1A4
:104FE00010BDFEE72DE9F0410646806801F0A4FC03
:104FF00004460D46306A01F09FFC02460B462046EF
:10500000294600F03DF81B4C206801F08AFA06465C
:105010000F46606801F085FA04460D463046394671
:1050200001F050FA134E024608364FF461673178AA
:105030003B46002000F088F82046294601F042FA5D
:10504000024631793B46012000F07EF80A4C0221ED
:105050002046FBF741FF01212046FBF73DFF61158C
:10506000064C2046FBF738FFA1152046BDE8F0416D
:10507000FBF732BF2000002000140140000C01406B
:105080002DE9F0472D4E05468846D6E9000101F08E
:105090005FFA4FF0FF3201F02BFD894604462A46A5
:1050A000434601F053FB00F0D3FF07462046494634
:1050B0002A46434600F0FEFF00F0CAFF0446384689
:1050C00001F03AFCD6E9022301F0A4F8DFF8708081
:1050D0000022434601F03CFA00F0BAFF00F0B0F8BD
:1050E00006F110052860204601F026FCD6E90223CF
:1050F00001F090F80022434601F02AFA00F0A8FFE0
:1051000000F09EF80F4A4FF400016860974205D204
:105110008F4201DB002302E0022300E00123074865
:1051200018309442036005D28C4201DB002102E07A
:10513000022100E001214160BDE8F087100000205D
:105140000000A940000080802DE9F0411D4C1E4E5A
:10515000154648B1012816D140024710F1B1012986
:105160004FF0000227D01AE079B1012914D00022B3
:1051700080212046FBF7B8FE002240212046FBF7A5
:10518000B3FE30684563BDE8F081002280212046EF
:10519000FBF7AAFE0122F0E70122E9E7012201461E
:1051A0002046FBF7A1FE002239462046FBF79CFE75
:1051B00030688563E7E701462046FBF795FE01224C
:1051C000F2E70000001C01409402002070B5184E68
:1051D000184C0025B8B1012828D104213046FDF72C
:1051E0001DFA30688563002261152046FBF77CFEBE
:1051F0000022A1152046FBF777FE0F483C21BDE8B1
:105200007040FDF7E1B800210948FDF707FA306862
:105210004563002280212046FBF766FE00224021E4
:105220002046FBF761FE3C210448E8E770BD000022
:1052300094020020001C014004020020BC01002058
:10524000B0F5000F01DA80F0004001F0A1BB0000D2
:105250002DE9F04104464FF400708846154682421D
:1052600000DD0546D4F80804C0F50076AE4200D350
:105270002E4604F5027738443246FBF768F8B4F856
:105280000804B5422844C0F30800C4F8080405D057
:10529000AA1B08EB06013846FBF759F8236893F878
:1052A0003D00202820D1114D287800281CD1012054
:1052B0002870D4F80814D4F80C04814212D0884223
:1052C00001D2091A01E0C0F500718EB2C11932464F
:1052D0001846FDF7C3FBB4F80C043044C0F30800D3
:1052E000C4F80C0400202870BDE8F081AC01002057
:1052F00070B506460C46001D00F010F80546611911
:1053000006F1140000F00AF8284470BD0048704708
:10531000846C000800487047A56C000870B505460D
:105320000C460846291D00F009F90646A01905F1AA
:10533000080100F003F90644A01905F10C0100F082
:10534000FDF8304470BD000000487047B96C00089B
:1053500000487047DA6C0008034901600021416091
:105360008160C16070470000D06B00082DE9F843F0
:1053700004460D4608784978042640EA0120A978B9
:1053800040EA0140E97840EA01676068B84204D227
:10539000B900E068FAF760FFE060002080466760CF
:1053A00010E0A919AA5D4B7842EA03228B78C978EC
:1053B00042EA034242EA0161A160E26842F8201039
:1053C000401C361D61688142EBD8A819A95D42785E
:1053D000361D41EA02218278C07841EA024141EA61
:1053E00000672069B84204D2B900A069FAF734FF17
:1053F000A0610020276110E0A919AA5D4B7842EA5C
:1054000003228B78C97842EA034242EA0161616172
:10541000A26942F82010401C361D21698142EBD858
:10542000A819A95D4278361D41EA02218278C07828
:1054300041EA024141EA0067E069B84204D2B9009A
:10544000606AFAF709FF6062E76100271DE0A919A9
:10545000684600F0E7FD301D064604E0A95DAA1984
:10546000761C02F8011C00990144B142F6D8009A5A
:10547000291802442A44491E02F8018C2162009A2C
:105480008618606A40F827107F1CE069B842DED8B1
:105490003046BDE8F883000000487047F06C000813
:1054A00000487047946B000800487047116D000871
:1054B00000487047326D000800487047456D00088D
:1054C00000487047666D000810B5064B0A68B2FBCD
:1054D000F3F403FB1424B2FBF3F203681A440260F2
:1054E0000C6010BD00CA9A3B10B50A46C1F3C75301
:1054F0000BB103F56073002400F8014B00F8014B79
:1055000000F8024B540100F8014CD40800F8044B99
:10551000D40A00F8034CC1F3C34242EA03141A0947
:1055200000F8024C00F8012C11F1FF4F04D310F8E1
:10553000011D41F080010170082010BD10B5C27836
:1055400052090A60037942EAC3020A60437942EAD7
:10555000C3220A6010F8063F03F00F0342EAC34279
:105560000A6010F8013B04781B0904F07F0453EA39
:10557000041305D04FF0804404EBC3531A430A6070
:10558000007800F0800042EA00600860082010BD4A
:105590000A7842604B7842EA032242608B7842EA02
:1055A00003424260CB7842EA036242600B790A1DF3
:1055B0008360497943EA01218160937841EA03419C
:1055C0008160D27841EA0261816008207047000062
:1055D00000487047B96D000800487047DA6D000850
:1055E00002490022C0E90012826070475C6C00082A
:1055F00000487047E86D000800487047096E0008D1
:1056000070B506460C46001D00F008F80546611905
:1056100006F1140000F002F8284470BD70B50C4685
:10562000054641682046FFF75FFF0646A019A968B6
:10563000FFF75AFF0644A019E968FFF755FF304409
:1056400070BD2DE9F041054600790870A8880E4626
:10565000000A487068680424000C88706868000EAE
:10566000C87000210CE0E868321950F8210030556C
:10567000030A5370030C000E9370491CD070241D54
:1056800068688842EFD8287C3055288A010A30198A
:1056900041702969090C81702969090EC1700021C6
:1056A0000BE0A869321950F821003055030A5370F5
:1056B000030C000E9370D070491C2869241D884289
:1056C000EFD8287F3055A88B0027010A3019417088
:1056D000E969090C8170E969090EC170241D13E0A4
:1056E000686A50F82700FAF713FE804630194146E1
:1056F00000F0A5FC686A241D424650F827103019B6
:10570000FAF725FE44447F1CE869B842E8D82046F1
:10571000BDE8F08170B50646007908700C46B068A7
:10572000FAF7F6FD0546601C294600F088FC601D6E
:105730002A46B168FAF70BFE681D70BD2DE9F041ED
:10574000054600790870A8880C46000A4870A868C9
:10575000FAF7DEFD0646A01C314600F070FCA01DE5
:105760003246A968FAF7F3FDB71DE868FAF7D0FDED
:105770000646E019314600F062FC3F1DE019324652
:10578000E968FAF7E4FD3E442869FAF7C1FD0746E7
:10579000A019394600F053FC361DA0193A46296974
:1057A000FAF7D5FDF0196969221821540B0A5370D4
:1057B0000B0C090E9370D170001DBDE8F0810279C9
:1057C0000A708288120A4A704268120C8A70426813
:1057D000120ECA70027A0A710289130A0A1D4B71ED
:1057E0008168090C91708068000ED07008207047A5
:1057F00070B506460C464068FAF78AFD0546204615
:10580000294600F01CFC201D2A467168FAF79FFD0E
:10581000281D70BD0907090E002804DB00F1E020F7
:1058200080F80014704700F00F0000F1E02080F8CD
:10583000141D704770B51A48002404604460083095
:1058400004604460174800F0A5FB15481649103065
:1058500018A20160154941601548114910310461D1
:10586000C0E900211430FFF777FD114816A224305B
:10587000A0F110010461C0E9002114301A4940F878
:105880000C1B1A4914A602C0164D0124FFF764FD33
:105890001030FFF761FD40F8186CC0E9045470BD8A
:1058A00020000020A8030020746C0008196E000876
:1058B000E01000202F73746D33322F737973746589
:1058C0006D5F7570000000002F73746D33322F65AB
:1058D0006E636F64657273002F636D645F76656CD1
:1058E00000000000E54F0008306C0008B86B0008AD
:1058F00010B588B020211848FBF7EEFA2021174890
:10590000FBF7EAFA16480068406A01F061F8154CA6
:10591000606015480068406A01F05AF82246A060AD
:1059200002F11000D0E9021003681B6898471C229E
:105930000EA16846FAF750FD19216846FAF72EFFC6
:10594000A4F64C5000F0C8F9C820FBF7B7F90E4890
:10595000FBF703FB08B010BD000C0140001801402C
:10596000BC010020F41000200402002053544D33E9
:10597000322055534220434F4D20506F7274204FB8
:105980004B210D0A00000000B001002008B5FBF714
:10599000F3FAFDF723FCFDF7C1F82448416941F013
:1059A000010141614069002200F0010000901146B0
:1059B0000E20FBF73DFB0E20FBF72CFB00221146CF
:1059C0000F20FBF735FB0F20FBF724FB1948184984
:1059D0000C2201604FF4E131416000218160C1601F
:1059E000C0E904128161C161FCF77AFF08B172B6A7
:1059F000FEE7FDF71DF9FDF77FF9FDF7C9F9FDF7A2
:105A0000FDF9FDF731FA0D480B49016005214160B0
:105A100040F6FF718160FBF773FA08B172B6FEE7DA
:105A200000F00EF8FFF764FFFCE7000000100240F2
:105A300000380140DC02002000300040B0010020AE
:105A400070B52B4C012220212046FBF74DFA012294
:105A500020212848FBF748FA274D0022022128463A
:105A6000FBF742FA002201212846FBF73DFA6515B3
:105A7000002229462046FBF737FA0022A1152046CE
:105A8000FBF732FA1D4C2A46211D01C9FCF7CEFF57
:105A90000020C4F8E80CC4F8EC0CC4F8F40CC4F80A
:105AA000F00C04F63851204600F05EFA04F65C5122
:105AB000204600F059FA214601F557625FF00000D8
:105AC00001EB8003D3F8843C53B1401C1928F7DB69
:105AD0000020FFF77BFBBDE870400120FFF776BB9D
